:100AD300EF1FAC0670011E4C600A7D027CEFDCFE4A
:040AE300DDFC80ECCA
:010AE70022EC
:0E0AFC0000007F017ED87D23DDFEDEFCDFFAE8
:010B0A0022C8
:10089400E4FC20B10B120AFC30B1FD1200007C0113
:1008A40020B00B120AFC30B1FD1200007C0220B211
:1008B4000B120AFC30B1FD1200007C0320B30B12B2
:0C08C4000AFC30B1FD1200007C04AF04FF
:0108D0002205
:060B0B00C2A58F80D2A7F5
:080B11007F027EEFDEFEDFFC37
:010B190022B9
:0A0B3E00C2A6120B0BC2A7020B1196
:100A4F00CFCDCFCECCCE12083F7C007D0A12083F0F
:040A5F00ED2430FF53
:0A0A6300D2A6120B0BC2A7020B1162
:100ABD00AE07BE0104ED148006BE0209ED243F44CD
:060ACD0080FF120B3E2227
:100AE8007F38120B3E7F0C120B3E7F06120B3E7FA7
:040AF80001020B3EAE
:0A0B4800AC03120ABDAF04020A63F9
:060A0A008B228A238924DF
:100A1000120ABDE4FDAB22AA23A9248D82758300AE
:0C0A2000120800FF6006120A630D80E956
:010A2C0022A7
:0C097C007F0AEA24FFFDE434FFFC7E004B
:080988008E1E8F1F8C208D21B3
:100990007F017E00E4FBEBC39521E5206480F874C1
:0E09A0008098500AAC1EAD1F12082D0B80E887
:0109AE002226
:040A6D008A118B124D
:100A7100120ABDAA13EAD39400400D12097CAC11ED
:080A8100AD12120A4F1A80EDBC
:010A8900224A
:1008D100120ABDC3EA64809480400B7F2B120A6325
:1008E1008A0D8B0E800E7F2D120A63C3E49BF50ED9
:1008F100E49AF50DAA0CEAD39400400D12097CACE0
:090901000DAD0E120A4F1A80ED33
:01090A0022CA
:04090B008A168B17A6
:10090F00120ABDAA18EAD3940040297F1012097E5B
:10091F00AC16AD17CFCDCFCECCCE12083FEF540FC4
:10092F00FEC3940AEE5004243080022437FF120ACB
:04093F00631A80D1E6
:010943002291
:040944008A1B8B1C63
:10094800120ABDAA1DEAD394004028EA24FFFDE458
:1009580034FFFC7F027E00120988AC1BAD1CCFCD92
:10096800CFCECCCE12083FEF54012430FF120A63D9
:030978001A80D210
:01097B002259
:030B64004F4B00F4
:100AA400120AE87BFF7A0B79647D017F01120A0A3E
:090AB400E4FF1209AF8FA080FEDF
:100A2D008F258D26120B527FA01209DF120B26AFD8
:100A3D00251209DF120B26AF261209DF120B260233
:020A4D000B5B41
:0209AF008F2295
:1009B100120B527FA01209DF120B26AF221209DFA0
:1009C100120B26120B527FA11209DF120B26120AFB
:0D09D1008A8F237F01120B1A120B5BAF23DC
:0109DE0022F6
:090B5200D2A0D2A1C2A0C2A122CE
:090B5B00C2A0D2A1D2A0C2A122C5
:0209DF00AD0762
:1009E100C2A1E4FB7E007480A803088006CEA2E7C2
:1009F10013CE13D8F8FFEDF582EF558224FF92A0B4
:080A0100D2A1C2A10BBB08DC6D
:010A090022CA
:100A8A00E4FFD2A0C2A1FEEF25E0FFD2A1A2A0E41A
:090A9A00334207C2A10EBE08EEB2
:010AA3002230
:0C0B1A00C2A1EF24FF92A0D2A1C2A12230
:0B0B2600C2A1A2A0E433FFD2A1C2A133
:010B310022A1
:03000000020B32BE
:0C0B3200787FE4F6D8FD758126020AA445
:10080000BB010CE58229F582E5833AF583E02250AD
:1008100006E92582F8E622BBFE06E92582F8E222F7
:0D082000E58229F582E5833AF583E4932211
:10082D00EF8DF0A4A8F0CF8CF0A428CE8DF0A42EDF
:02083D00FE2299
:10083F00BC000BBE0029EF8DF084FFADF022E4CC9D
:10084F00F875F008EF2FFFEE33FEEC33FCEE9DEC66
:10085F00984005FCEE9DFE0FD5F0E9E4CEFD22EDAC
:10086F00F8F5F0EE8420D21CFEADF075F008EF2FF6
:10087F00FFED33FD4007985006D5F0F222C398FDE7
:05088F000FD5F0EA2284
:00000001FF
