:0C0A290048656C6C6F20776F726C640085
:10099500120A067BFF7A0A79297D017F0112097205
:1009A500750C057B377A257D017F021209D380FE00
:060A1A00C2A58F80D2A7E7
:080A20007F027EEFDEFEDFFC29
:010A280022AB
:0A0A4100C2A6120A1AC2A7020A2078
:1009B500CFCDCFCECCCE12083F7C007D0A12083FAA
:0409C500ED2430FFEE
:0A09C900D2A6120A1AC2A7020A20E1
:1009F000AE07BE0104ED148006BE0209ED243F449B
:060A000080FF120A4122F2
:100A06007F38120A417F0C120A417F06120A417F83
:040A160001020A418E
:0A0A4B00AC031209F0AF040209C960
:060972008B088A09890AC6
:100978001209F0E4FDAB08AA09A90A8D8275830063
:0C098800120800FF60061209C90D80E98A
:010994002240
:0C093F007F0AEA24FFFDE434FFFC7E0088
:08094B008E0D8F0E8C0F8D1034
:100953007F017E00E4FBEBC39510E50F6480F87420
:0E0963008098500AAC0DAD0E12082D0B80E8E6
:010971002263
:0409D3008A0A8B0BF6
:1009D7001209F0AA0CEAD39400400D12093FAC0AA1
:0809E700AD0B1209B51A80EDF9
:0109EF0022E5
:100894001209F0C3EA64809480400B7F2B1209C9CB
:1008A4008A168B17800E7F2D1209C9C3E49BF51796
:1008B400E49AF516AA15EAD39400400D12093FAC48
:0908C40016AD171209B51A80EDFA
:0108CD002208
:0408CE008A1A8B1BDC
:1008D2001209F0AA1CEAD3940040297F10120941A0
:1008E200AC1AAD1BCFCDCFCECCCE12083FEF540FFA
:1008F200FEC3940AEE5004243080022437FF12090A
:04090200C91A80D1BD
:0109060022CE
:040907008A1F8B2098
:10090B001209F0AA21EAD394004028EA24FFFDE45F
:10091B0034FFFC7F027E0012094BAC1FAD20CFCD04
:10092B00CFCECCCE12083FEF54012430FF1209C9B1
:03093B001A80D24D
:01093E002296
:03000000020A35BC
:0C0A3500787FE4F6D8FD75812102099558
:10080000BB010CE58229F582E5833AF583E02250AD
:1008100006E92582F8E622BBFE06E92582F8E222F7
:0D082000E58229F582E5833AF583E4932211
:10082D00EF8DF0A4A8F0CF8CF0A428CE8DF0A42EDF
:02083D00FE2299
:10083F00BC000BBE0029EF8DF084FFADF022E4CC9D
:10084F00F875F008EF2FFFEE33FEEC33FCEE9DEC66
:10085F00984005FCEE9DFE0FD5F0E9E4CEFD22EDAC
:10086F00F8F5F0EE8420D21CFEADF075F008EF2FF6
:10087F00FFED33FD4007985006D5F0F222C398FDE7
:05088F000FD5F0EA2284
:00000001FF
