:060CB500636F756E740010
:10098D00750801E4F509120C2A7BFF7A0C79B57D07
:10099D00017F01120B651209EF8F09E50924FE6035
:1009AD000E14600F14601C2403701F0508801B15A6
:1009BD00088017AD08E4FF120B887F057E00120C2E
:1009CD00158007E4FF120B0A8F087F057E00120CBD
:1009DD0015E508FB7A00750E027D017F02120BC82A
:0209ED0080B4D4
:100B88008F0A8D0B120CA37FA0120B3A120C77AFB1
:100B98000A120B3A120C77AF0B120B3A120C7702AF
:020BA8000CAC93
:020B0A008F0A50
:100B0C00120CA37FA0120B3A120C77AF0A120B3AFD
:100B1C00120C77120CA37FA1120B3A120C77120B4A
:0D0B2C00E58F0B7F01120C6B120CACAF0BB0
:010B39002299
:100C1500EF1FAC0670011E4C600A7D027CEFDCFE06
:040C2500DDFC80EC86
:010C290022A8
:090CA300D2A0D2A1C2A0C2A1227C
:090CAC00C2A0D2A1D2A0C2A12273
:020B3A00AD0705
:100B3C00C2A1E4FB7E007480A803088006CEA2E765
:100B4C0013CE13D8F8FFEDF582EF558224FF92A057
:080B5C00D2A1C2A10BBB08DC11
:010B6400226E
:100BE500E4FFD2A0C2A1FEEF25E0FFD2A1A2A0E4BE
:090BF500334207C2A10EBE08EE56
:010BFE0022D4
:0C0C6B00C2A1EF24FF92A0D2A1C2A122DE
:0B0C7700C2A1A2A0E433FFD2A1C2A1E1
:010C8200224F
:0E0C3E0000007F017ED87D23DDFEDEFCDFFAA4
:010C4C002285
:1009EF00E4FC20B10B120C3E30B1FD120C5C7C010B
:1009FF0020B00B120C3E30B1FD120C5C7C0220B209
:100A0F000B120C3E30B1FD120C5C7C0320B30B12A9
:0C0A1F000C3E30B1FD120C5C7C04AF04F6
:010A2B0022A8
:060C4D00C2A58F80D2A7B2
:080C53007F027EEFDEFEDFFCF4
:010C5B002276
:0A0C8F00C2A6120C4DC2A7020C53BE
:100BAA00CFCDCFCECCCE1209387C007D0A120938BF
:040BBA00ED2430FFF7
:0A0BBE00D2A6120C4DC2A7020C5380
:100BFF00AE07BE0104ED148006BE0209ED243F448A
:060C0F0080FF120C8F2291
:100C2A007F38120C8F7F0C120C8F7F06120C8F7F6D
:040C3A0001020C8F18
:0A0C9900AC03120BFFAF04020BBE08
:060B65008B0A8A0B890CCB
:100B6B00120BFFE4FDAB0AAA0BA90C8D8275830057
:0C0B7B001208F9FF6006120BBE0D80E9A5
:010B8700224B
:0C0AD7007F0AEA24FFFDE434FFFC7E00EF
:080AE3008E0F8F108C118D1293
:100AEB007F017E00E4FBEBC39512E5116480F87483
:0E0AFB008098500AAC0FAD101209260B80E84F
:010B090022C9
:040BC8008A0C8B0DFB
:100BCC00120BFFAA0EEAD39400400D120AD7AC0CFC
:080BDC00AD0D120BAA1A80ED09
:010BE40022EE
:100A2C00120BFFC3EA64809480400B7F2B120BBE29
:100A3C008A188B19800E7F2D120BBEC3E49BF519FF
:100A4C00E49AF518AA17EAD39400400D120AD7AC11
:090A5C0018AD19120BAA1A80ED65
:010A6500226E
:040A66008A1C8B1D3E
:100A6A00120BFFAA1EEAD3940040297F10120AD95A
:100A7A00AC1CAD1DCFCDCFCECCCE120938EF540F62
:100A8A00FEC3940AEE5004243080022437FF120B6E
:040A9A00BE1A80D12F
:010A9E002235
:040A9F008A218B22FB
:100AA300120BFFAA23EAD394004028EA24FFFDE4B3
:100AB30034FFFC7F027E00120AE3AC21AD22CFCDCE
:100AC300CFCECCCE120938EF54012430FF120BBE27
:030AD3001A80D2B4
:010AD60022FD
:0E0C5C0000007F017EEA7D71DDFEDEFCDFFA26
:010C6A002267
:10080000E4FC7590FFC29320970B120C5C3097FDAF
:10081000120C5C7C0120960B120C5C3096FD120CC5
:100820005C7C0520950B120C5C3095FD120C5C7CF9
:100830000920940B120C5C3094FD120C5C7C0D753D
:1008400090FFC29220970B120C5C3097FD120C5C4B
:100850007C0220960B120C5C3096FD120C5C7C0620
:1008600020950B120C5C3095FD120C5C7C0A2094D8
:100870000B120C5C3094FD120C5C7C0E7590FFC268
:100880009120970B120C5C3097FD120C5C7C0320BE
:10089000960B120C5C3096FD120C5C7C0720950BBD
:1008A000120C5C3095FD120C5C7C0B20940B120C2E
:1008B0005C3094FD120C5C7C0F7590FFC290209709
:1008C0000B120C5C3097FD120C5C7C0420960B1212
:1008D0000C5C3096FD120C5C7C0820950B120C5CB5
:1008E0003095FD120C5C7C0C20940B120C5C309447
:0808F000FD120C5C7C10AF044A
:0108F80022DD
:03000000020C836C
:0C0C8300787FE4F6D8FD75812302098D0E
:1008F900BB010CE58229F582E5833AF583E02250B4
:1009090006E92582F8E622BBFE06E92582F8E222FD
:0D091900E58229F582E5833AF583E4932217
:10092600EF8DF0A4A8F0CF8CF0A428CE8DF0A42EE5
:02093600FE229F
:10093800BC000BBE0029EF8DF084FFADF022E4CCA3
:10094800F875F008EF2FFFEE33FEEC33FCEE9DEC6C
:10095800984005FCEE9DFE0FD5F0E9E4CEFD22EDB2
:10096800F8F5F0EE8420D21CFEADF075F008EF2FFC
:10097800FFED33FD4007985006D5F0F222C398FDED
:050988000FD5F0EA228A
:00000001FF
