:0C0B390048656C6C6F20776F726C640074
:100A6B00120B077BFF7A0B79397D017F01120A93F9
:100A7B001208008F22E52260F7FB7A00750C037DCC
:080A8B00017F02120AD480E889
:060B1B00C2A58F80D2A7E5
:080B21007F027EEFDEFEDFFC27
:010B290022A9
:0A0B5100C2A6120B1BC2A7020B2163
:100AB600CFCDCFCECCCE1209387C007D0A120938B4
:040AC600ED2430FFEC
:0A0ACA00D2A6120B1BC2A7020B21DB
:100AF100AE07BE0104ED148006BE0209ED243F4499
:060B010080FF120B5122DF
:100B07007F38120B517F0C120B517F06120B517F4E
:040B170001020B517B
:0A0B5B00AC03120AF1AF04020ACA4B
:060A93008B088A09890AA4
:100A9900120AF1E4FDAB08AA09A90A8D827583003F
:0C0AA9001208F9FF6006120ACA0D80E96D
:010AB500221E
:0C0A38007F0AEA24FFFDE434FFFC7E008E
:080A44008E0D8F0E8C0F8D103A
:100A4C007F017E00E4FBEBC39510E50F6480F87426
:0E0A5C008098500AAC0DAD0E1209260B80E8F2
:010A6A002269
:040AD4008A0A8B0BF4
:100AD800120AF1AA0CEAD39400400D120A38AC0AA3
:080AE800AD0B120AB61A80EDF5
:010AF00022E3
:10098D00120AF1C3EA64809480400B7F2B120ACACD
:10099D008A168B17800E7F2D120ACAC3E49BF5179A
:1009AD00E49AF516AA15EAD39400400D120A38AC54
:0909BD0016AD17120AB61A80EDFE
:0109C600220E
:0409C7008A1A8B1BE2
:1009CB00120AF1AA1CEAD3940040297F10120A3AAA
:1009DB00AC1AAD1BCFCDCFCECCCE120938EF540F06
:1009EB00FEC3940AEE5004243080022437FF120A0F
:0409FB00CA1A80D1C3
:0109FF0022D5
:040A00008A1F8B209E
:100A0400120AF1AA21EAD394004028EA24FFFDE463
:100A140034FFFC7F027E00120A44AC1FAD20CFCD10
:100A2400CFCECCCE120938EF54012430FF120ACABB
:030A34001A80D253
:010A3700229C
:0E0B2A0000007F017EEA7D71DDFEDEFCDFFA59
:010B3800229A
:10080000E4FC7590FFC29320970B120B2A3097FDE2
:10081000120B2A7C0120960B120B2A3096FD120B2C
:100820002A7C0520950B120B2A3095FD120B2A7C91
:100830000920940B120B2A3094FD120B2A7C0D75A3
:1008400090FFC29220970B120B2A3097FD120B2AB1
:100850007C0220960B120B2A3096FD120B2A7C0686
:1008600020950B120B2A3095FD120B2A7C0A20943E
:100870000B120B2A3094FD120B2A7C0E7590FFC2CE
:100880009120970B120B2A3097FD120B2A7C032024
:10089000960B120B2A3096FD120B2A7C0720950B23
:1008A000120B2A3095FD120B2A7C0B20940B120B95
:1008B0002A3094FD120B2A7C0F7590FFC29020976E
:1008C0000B120B2A3097FD120B2A7C0420960B1278
:1008D0000B2A3096FD120B2A7C0820950B120B2A4E
:1008E0003095FD120B2A7C0C20940B120B2A3094AD
:0808F000FD120B2A7C10AF047D
:0108F80022DD
:03000000020B45AB
:0C0B4500787FE4F6D8FD758122020A6B6F
:1008F900BB010CE58229F582E5833AF583E02250B4
:1009090006E92582F8E622BBFE06E92582F8E222FD
:0D091900E58229F582E5833AF583E4932217
:10092600EF8DF0A4A8F0CF8CF0A428CE8DF0A42EE5
:02093600FE229F
:10093800BC000BBE0029EF8DF084FFADF022E4CCA3
:10094800F875F008EF2FFFEE33FEEC33FCEE9DEC6C
:10095800984005FCEE9DFE0FD5F0E9E4CEFD22EDB2
:10096800F8F5F0EE8420D21CFEADF075F008EF2FFC
:10097800FFED33FD4007985006D5F0F222C398FDED
:050988000FD5F0EA228A
:00000001FF
