:02083E00AD0704
:10084000E4FB7E007480A803088006CEA2E713CEE6
:1008500013D8F8FFEDF582EF558224FF92B4C2B6AB
:0A086000D2B60BBB08DCC2B5D2B55E
:01086A00226B
:10086B00AE05AC07AF0612083EAF04A807748008AC
:10087B008002C313D8FCF4F5807F017E0012088F31
:04088B007580FF2253
:10080000D2B6D2B57D3CE4FF12086B7D427F061262
:10081000086B7DA97F0212086B7D857F0312086B30
:100820007D857F0412086B7DA97F0512086B7D42D0
:0E0830007F0112086B7D3C7F0712086B80C6AB
:10088F00EF1FAC0670011E4C600A7D027CEFDCFE90
:04089F00DDFC80EC10
:0108A3002232
:030000000208A44F
:0C08A400787FE4F6D8FD7581070208009B
:00000001FF
