:10091100013B00013900010800013A322030090091
:1009210000193E7C540300000001021C1C7B58008E
:1009310000193E7C5403000000237CF8B60100003E
:0F0941000001022478FFB00000237CF8B601000B
:100A0C005389F0438901E4F58A758CDCC28DD28C54
:050A1C00D2A9D2AF22B7
:03000B0002098E59
:10098E00C0E0C0D0758A00758CDC0539E539C39599
:10099E003A4015753900E508700E7408253CF53C93
:0D09AE00C394284003753C00D0D0D0E03247
:06088C00120A0C120A45DD
:100892001209518F3EE53EB40113E50870047F0151
:1008A20080027F008F087FC87E00120A217409250A
:1008B2003CF8E6FDE4FF1209E8740A253CF8E6FD7F
:1008C2007F011209E8740B253CF8E6FD7F0212094C
:1008D200E8740C253CF8E6FD7F031209E8740D2547
:1008E2003CF8E6FD7F041209E8740E253CF8E6FDAB
:1008F2007F051209E8740F253CF8E6FD7F06120910
:0D090200E87410253CF8E6FD7F071209E8B7
:02090F008081E5
:100A2100EF1FAC0670011E4C600A7D027CEFDCFEFC
:040A3100DDFC80EC7C
:010A3500229E
:0209BB00AD0786
:1009BD00E4FB7E007480A803088006CEA2E713CE68
:1009CD0013D8F8FFEDF582EF558224FF92B4C2B62D
:0A09DD00D2B60BBB08DCC2B5D2B5E0
:0109E70022ED
:1009E800AE05AC07AF061209BBAF04A807748008B0
:1009F8008002C313D8FCF4F5807F017E00120A211F
:040A08007580FF22D4
:050A4500D2B6D2B5227B
:0E0A360000007F017ED87D23DDFEDEFCDFFAAE
:010A4400228F
:10095100E4FC20B10B120A3630B1FD120A367C01DB
:1009610020B00B120A3630B0FD120A367C0220B2DA
:100971000B120A3630B2FD120A367C0320B30B1279
:0C0981000A3630B3FD120A367C04AF04C5
:01098D002247
:03000000020800F3
:0C080000787FE4F6D8FD75813E020847C1
:10080C0002088CE493A3F8E493A34003F68001F26E
:10081C0008DFF48029E493A3F85407240CC8C333ED
:10082C00C4540F4420C8834004F456800146F6DFBC
:10083C00E4800B0102040810204080900911E47E32
:10084C00019360BCA3FF543F30E509541FFEE493B1
:10085C00A360010ECF54C025E060A840B8E493A378
:10086C00FAE493A3F8E493A3C8C582C8CAC583CAA3
:10087C00F0A3C8C582C8CAC583CADFE9DEE780BE5B
:0109500000A6
:00000001FF
