:10090E000138002030080000193E7C54030000001E
:10091E0001021C1C7B580000193E7C540300000091
:10092E00237CF8B60100000001022478FFB000001D
:06093E00237CF8B6010065
:10088C001209ABE4F539E539C3943050F6740825F8
:10089C0039F5392408F8E6FDE4FF120972740925CC
:1008AC0039F8E6FD7F01120972740A2539F8E6FD64
:1008BC007F02120972740B2539F8E6FD7F031209C9
:1008CC0072740C2539F8E6FD7F04120972740D253B
:1008DC0039F8E6FD7F05120972740E2539F8E6FD2C
:1008EC007F06120972740F2539F8E6FD7F0712098D
:1008FC0072E539B42803E4F5397F647E0012099659
:02090C008084E5
:10099600EF1FAC0670011E4C600A7D027CEFDCFE88
:0409A600DDFC80EC08
:0109AA00222A
:02094500AD07FC
:10094700E4FB7E007480A803088006CEA2E713CEDE
:1009570013D8F8FFEDF582EF558224FF92B4C2B6A3
:0A096700D2B60BBB08DCC2B5D2B556
:010971002263
:10097200AE05AC07AF06120945AF04A8077480089C
:100982008002C313D8FCF4F5807F017E0012099621
:040992007580FF224B
:0509AB00D2B6D2B52216
:03000000020800F3
:0C080000787FE4F6D8FD758139020847C6
:10080C0002088CE493A3F8E493A34003F68001F26E
:10081C0008DFF48029E493A3F85407240CC8C333ED
:10082C00C4540F4420C8834004F456800146F6DFBC
:10083C00E4800B010204081020408090090EE47E35
:10084C00019360BCA3FF543F30E509541FFEE493B1
:10085C00A360010ECF54C025E060A840B8E493A378
:10086C00FAE493A3F8E493A3C8C582C8CAC583CAA3
:10087C00F0A3C8C582C8CAC583CADFE9DEE780BE5B
:0109440000B2
:00000001FF
