:08090D007F037E52DEFEDFFCD9
:0109150022BF
:030800000D7E006A
:10080300EE705BEF14B40800505490081B75F003AE
:10081300A4C58325F0C58373020833020837020891
:100823003F02084302084B02084F02085702085BC5
:10083300C2A28002D2A2C2A3C2A48022C2A2800208
:10084300D2A2D2A3C2A48016C2A28002D2A2C2A301
:10085300D2A4800AC2A28002D2A2D2A3D2A4EC70F4
:100863005BEDB40A005055900871F828287302080C
:10087300BC02088F02089402089902089E0208A38A
:100883000208A80208AD0208B20208B775803080DA
:100893002B75805B802675804F8021758066801C58
:1008A30075806D801775807D8012758007800D754A
:0F08B300807F800875801F800375803F02090DCC
:1008C2007D017C007F017E001208037F0212080076
:1008D2007F031208000D7F047E001208030D7F05BE
:1008E2007E001208030D7F067E001208030D7F07AB
:0F08F2007E001208030D7F087E0012080380C1EC
:03000000020901F1
:0C090100787FE4F6D8FD7581070208C27B
:00000001FF
