:10086700438906758CFD758AFDD2AFD2A9D28C2239
:03000B0002089256
:0408920063A0FF322E
:10083D0075A0FF1208671208008F08E50860F7D24F
:05084D00B4C2B480F10B
:10085200EF1FAC0670011E4C600A7D027CEFDCFECD
:04086200DDFC80EC4D
:01086600226F
:0E08770000007F017ED87D23DDFEDEFCDFFA6F
:010885002250
:10080000E4FC20B10B12087730B1FD1208777C01AF
:1008100020B00B12087730B1FD1208777C0220B2AD
:100820000B12087730B1FD1208777C0320B30B124E
:0C083000087730B1FD1208777C04AF049B
:01083C002299
:030000000208866D
:0C088600787FE4F6D8FD75810902083D7A
:00000001FF
