:100C1200E4FF20B1010F20B0027F0220B2027F0365
:050C220020B3027F0475
:010C270022AA
:100BE4005389F0438901758AA4758CFFC28DD28C18
:070BF400D2AFD2B9D2A92251
:100BFB0053890F438910758BA4758DFFC28FD28ECD
:070C0B00D2AFC2BBD2AB2245
:03001B00020B4293
:100B4200C0E0C0D075D000C006C007C28F758BA4AC
:100B5200758DFFE517640A70250518F517AF18FEA5
:100B6200BE0307BFE8040519F518E519B43C0505ED
:100B720013751900E513B464077513008002051795
:090B8200D007D006D0D0D0E0323B
:03000B00020800E8
:10080000C0E0C0F0C083C082C0D075D000C000C0BE
:1008100001C002C003C004C005C006C007C28D7578
:100820008AA4758CFFE51A64147042F51A851615B2
:10083000120C128F16E515B40109E5167005751432
:1008400001802CE515B40209E516700575140280C7
:100850001EE515B40309E51670057514038010E54F
:1008600015B4040BE51670077514048002051AE52B
:1008700012B4140DE51375F00A84FD7C007F01802D
:1008800073E512B4280FE51375F00A84E5F0FD7CDA
:10089000007F02805FE512B43C047F03802DE512E7
:1008A000B4500DE51975F00A84FD7C007F04804486
:1008B000E512B4640FE51975F00A84E5F0FD7C00DB
:1008C0007F058030E512B478097F06120A250512EB
:1008D0008049E512B48C24E51875F00A8475F00A95
:1008E00084AFF0E51875F06484C3E5F09FFDE494EF
:1008F00000FC7F071209C205128020E512B4A0197E
:10090000E51875F00A8475F00A84E5F0FD7C007F37
:10091000081209C275120180020512D007D006D054
:1009200005D004D003D002D001D000D0D0D082D0E6
:0609300083D0F0D0E0329C
:100BC800751A01751201E4F517120BE4120BFBF507
:0C0BD80018F519F513F515F516F51422A3
:050C4400120BC880FE48
:0C0C37000A083F065B4F666D7D077F6F6B
:1009C200EF14B4080050549009D775F003A4C583FE
:1009D20025F0C583730209EF0209F30209F7020940
:1009E200FB0209FF020A07020A0F020A17D2A480B9
:1009F2000ED2A48012D2A48016D2A4801AC2A4D28B
:100A0200A3D2A28016C2A4D2A3C2A2800EC2A4C242
:100A1200A3D2A28006C2A4C2A3C2A274082DF8E681
:030A2200F580223A
:100A2500EF14B408005054900A3A75F003A4C58336
:100A350025F0C58373020A52020A56020A5A020AAF
:100A45005E020A62020A6A020A72020A7AD2A48065
:100A55000ED2A48012D2A48016D2A4801AC2A4D227
:100A6500A3D2A28016C2A4D2A3C2A2800EC2A4C2DF
:0F0A7500A3D2A28006C2A4C2A3C2A2758040224F
:100A8400EF14B408005054900A9975F003A4C58378
:100A940025F0C58373020AB1020AB5020AB9020A33
:100AA400BD020AC1020AC9020AD1020AD9D2A4802B
:100AB4000ED2A48012D2A48016D2A4801AC2A4D2C8
:100AC400A3D2A28016C2A4D2A3C2A2800EC2A4C280
:0F0AD400A3D2A28006C2A4C2A3C2A27580082228
:100AE300EF14B408005054900AF875F003A4C583BA
:100AF30025F0C58373020B10020B14020B18020BB3
:100B03001C020B20020B28020B30020B38D2A480EC
:100B13000ED2A48012D2A48016D2A4801AC2A4D268
:100B2300A3D2A28016C2A4D2A3C2A2800EC2A4C220
:0F0B3300A3D2A28006C2A4C2A3C2A27580482288
:0E0C280000007F017ED87D23DDFEDEFCDFFABA
:010C3600229B
:100B8B00E4FC20B10B120C2830B1FD1200007C01EB
:100B9B0020B00B120C2830B1FD1200007C0220B2E9
:100BAB000B120C2830B1FD1200007C0320B30B128A
:0C0BBB000C2830B1FD1200007C04AF04D7
:010BC700220B
:03000000020936BC
:0C093600787FE4F6D8FD75811A02097D77
:10094200020C44E493A3F8E493A34003F68001F27B
:1009520008DFF48029E493A3F85407240CC8C333B6
:10096200C4540F4420C8834004F456800146F6DF85
:10097200E4800B0102040810204080900C37E47ED2
:10098200019360BCA3FF543F30E509541FFEE4937A
:10099200A360010ECF54C025E060A840B8E493A341
:1009A200FAE493A3F8E493A3C8C582C8CAC583CA6C
:1009B200F0A3C8C582C8CAC583CADFE9DEE780BE24
:010C430000B0
:00000001FF
