:1009E800E4F513E513FD7C007F01120985120A2A3C
:1009F8008F12E51260F7B4010C0513E513B40A135E
:100A0800E4F513800EE512B40209E51370037513BB
:100A18000A1513E513FD7C007F01120985E4F51220
:020A280080CB81
:100A6700EF1FAC0670011E4C600A7D027CEFDCFEB6
:040A7700DDFC80EC36
:010A7B002258
:0E0A7C0000007F017ED87D23DDFEDEFCDFFA68
:010A8A002249
:100A2A00E4FC20B10B120A7C30B1FD120A7C7C0175
:100A3A0020B00B120A7C30B1FD120A7C7C0220B273
:100A4A000B120A7C30B1FD120A7C7C0320B30B1214
:0C0A5A000A7C30B1FD120A7C7C04AF0461
:010A6600226D
:0E0A8B0000007F017EEA7D71DDFEDEFCDFFAF9
:010A9900223A
:10080000E4FC7590FFC29320970B120A8B3097FD82
:10081000120A8B7C0120960B120A8B3096FD120A6D
:100820008B7C0520950B120A8B3095FD120A8B7C70
:100830000920940B120A8B3094FD120A8B7C0D75E3
:1008400090FFC29220970B120A8B3097FD120A8BF1
:100850007C0220960B120A8B3096FD120A8B7C06C6
:1008600020950B120A8B3095FD120A8B7C0A20947E
:100870000B120A8B3094FD120A8B7C0E7590FFC20E
:100880009120970B120A8B3097FD120A8B7C032064
:10089000960B120A8B3096FD120A8B7C0720950B63
:1008A000120A8B3095FD120A8B7C0B20940B120AD6
:1008B0008B3094FD120A8B7C0F7590FFC2902097AD
:1008C0000B120A8B3097FD120A8B7C0420960B12B8
:1008D0000A8B3096FD120A8B7C0820950B120A8B2E
:1008E0003095FD120A8B7C0C20940B120A8B3094ED
:0808F000FD120A8B7C10AF041D
:0108F80022DD
:0C0A9A000A083F065B4F666D7D077F6F0A
:10098500EF14B40800505490099A75F003A4C58378
:1009950025F0C583730209B20209B60209BA020934
:1009A500BE0209C20209CA0209D20209DAD2A4802A
:1009B5000ED2A48012D2A48016D2A4801AC2A4D2C8
:1009C500A3D2A28016C2A4D2A3C2A2800EC2A4C280
:1009D500A3D2A28006C2A4C2A3C2A274082DF8E6BF
:0309E500F5802278
:030000000208F9FA
:0C08F900787FE4F6D8FD758113020940F9
:100905000209E8E493A3F8E493A34003F68001F217
:1009150008DFF48029E493A3F85407240CC8C333F3
:10092500C4540F4420C8834004F456800146F6DFC2
:10093500E4800B0102040810204080900A9AE47EAE
:10094500019360BCA3FF543F30E509541FFEE493B7
:10095500A360010ECF54C025E060A840B8E493A37E
:10096500FAE493A3F8E493A3C8C582C8CAC583CAA9
:10097500F0A3C8C582C8CAC583CADFE9DEE780BE61
:010AA600004F
:00000001FF
