:10091500014000203808040202FC003C02023C02AF
:1009250000122A2A240000107E120400000609097C
:100935007E00060909060000002E0000107E120444
:0E0945000000003D0000000000000000000067
:10088C001209BAE4F54174082541F8E6FDE4FF12BB
:10089C00098174092541F8E6FD7F01120981740A6A
:1008AC002541F8E6FD7F02120981740B2541F8E61B
:1008BC00FD7F03120981740C2541F8E6FD7F0412BB
:1008CC000981740D2541F8E6FD7F05120981740E2E
:1008DC002541F8E6FD7F06120981740F2541F8E6E3
:1008EC00FD7F071209817F147E001209A5E54124C2
:1008FC0008FFE433FEEF64384E7002F5410541E524
:09090C0041C39438408002088FB9
:1009A500EF1FAC0670011E4C600A7D027CEFDCFE79
:0409B500DDFC80ECF9
:0109B900221B
:02095400AD07ED
:10095600E4FB7E007480A803088006CEA2E713CECF
:1009660013D8F8FFEDF582EF558224FF92B4C2B694
:0A097600D2B60BBB08DCC2B5D2B547
:010980002254
:10098100AE05AC07AF06120954AF04A8077480087E
:100991008002C313D8FCF4F5807F017E001209A503
:0409A1007580FF223C
:0509BA00D2B6D2B52207
:03000000020800F3
:0C080000787FE4F6D8FD758141020847BE
:10080C0002088CE493A3F8E493A34003F68001F26E
:10081C0008DFF48029E493A3F85407240CC8C333ED
:10082C00C4540F4420C8834004F456800146F6DFBC
:10083C00E4800B0102040810204080900915E47E2E
:10084C00019360BCA3FF543F30E509541FFEE493B1
:10085C00A360010ECF54C025E060A840B8E493A378
:10086C00FAE493A3F8E493A3C8C582C8CAC583CAA3
:10087C00F0A3C8C582C8CAC583CADFE9DEE780BE5B
:0109530000A3
:00000001FF
